:100714005389F0438901C2A9E4FDFCC3ED9FEC9E1B
:100724005016758CFC758A54C28DD28C308DFDC2E6
:080734008C0DBD00010C80E3F7
:01073C00229A
:03077A00C2052293
:0D075000300505C205C2A322D205D2A322A6
:100685007F807E2512033012002012077A7E077FB5
:10069500507BC87A00E4FDFC1205537E047F4B7B3A
:1006A500C87A007D1E7C0012055312026C1205B239
:0206B50080FBC8
:03000300011600E3
:1005B200E4F537E53775F007A4240EF8E6D3940086
:1005C2004032E53775F007A42408F8E6FE08E6AAEB
:1005D20006F912017CE53775F007A4240EF816E53A
:1005E2003775F007A4240CF8E6FE08E64E7005AF56
:1005F200371206050537E537C3940240B612064E98
:03060200020026CD
:080553008E378F388C398D3A88
:10055B00E4FEEE75F007A42408F8E6FC08E64C6010
:10056B0009EEC3940250030E80E8BE020675160115
:10057B007F0222EE75F007A42408F8A63708A638E8
:10058B00EE75F007A4240AF8A63908A63AEE75F022
:10059B0007A4240CF8A60208A603EE75F007A42402
:0605AB000EF8E4F6AF06B5
:0105B1002227
:10060500EF75F007A42408F8E6FC08E64C700775BA
:100615001602D2038002C203EF75F007A42408F87E
:10062500E4F608F6EF75F007A4240AF8E4F608F6F0
:10063500EF75F007A4240CF8E4F608F6EF75F0075B
:08064500A4240EF8E4F6A20360
:01064D00228A
:10064E00E5166517601BC374FF9516F580851617A2
:10065E00E51660077518EA75196022E4F518F519A4
:10066E0022E5194518600FE51915197002151814B1
:07067E0045187002F5162279
:0400260043870122E9
:06002000E4F51C02073D9F
:10044B001206E7E51C14602914604214605B14600B
:10045B007324047075C2A0D2A1D2A2051BE51B7038
:10046B0002051A640A451A7061751C01F51AF51B11
:10047B0022C2A0C2A1D2A2051BE51B7002051A6401
:10048B000A451A7045751C02F51AF51B22D2A0D22B
:10049B00A1C2A2051BE51B7002051A640A451A705E
:1004AB0029751C03F51AF51B22D2A0C2A1D2A205F5
:1004BB001BE51B7002051A640A451A700DF51CF535
:0A04CB001AF51B22D2A0D2A1D2A282
:0104D5002204
:0206E700151DDF
:1006E900A81DE4F6E521B40107751C04A81D7601CF
:1006F900120780500A751C04752E01A81D7601A8E1
:040709001DE624FFC6
:07070D00C0D0051DD0D02271
:02078000C32292
:10073D001206E74007C2A0D2A1D2A222D2A0D2A116
:03074D00D2A22213
:10000600022E3132012700C182C100022A3132029A
:090016002C313202280000C181E6
:040330008E378F383D
:10033400C2AF12002AD2A7C2B3D2B2E4F539AF39A0
:100344001206050539E539C3940240F2E4F516FFB7
:10035400EF25E02423F8E4F608F6742A2FF8E6FEE5
:1003640074282FF8A6060FBF02E653877F7598D22C
:10037400438920AE37AF38E4FCFD7BE07A2EF9F8F0
:1003840012002EA804A905AA06AB077FC07E0B7D28
:100394005A7C161200B9EFF404F58D858D8BD28E3C
:1003A400D299C2AC75C804E4F5C975CDEC75CBEC33
:0A03B40075CC7875CA78D2ADD2CAB4
:0103BE00221C
:10026C00C20312075D12077DC2A775160312064E54
:10027C00E4F53A7F1E7E0012071412075D053AE57D
:10028C003AC3946440EDE4F538F53B12075DC203C4
:10029C007428253BF8E6F537C299D29BF5997F0572
:1002AC007E0012071430980F859939C298E539B53C
:1002BC003705309A02D203C299D29B8537997F05B4
:1002CC007E00120714C204309812859939C298E541
:1002DC0039B53708309A05300302D20430040605CC
:1002EC0038053B801B742C253BF8E6FF7428253B16
:1002FC00F8E66F60097428253BF8A6078002053BD9
:10030C00E53BC394024084E538940250087516040A
:10031C0012076A8005E4F516D2A7D201D202E4F5E1
:03032C0027D2AF26
:01032F0022AB
:03002B000201824D
:10018200C0E0C0F0C083C082C0D075D000C000C043
:0D01920001C002C003C004C005C006C007C4
:10019F00C2CF12075DD2A7852730200104D201807C
:1001AF000EC2010527E527C394024003752700AF50
:1001BF00301206B75020C2A7751605E53025E0248A
:1001CF0023F80806E6187001068606C3EE94004071
:1001DF0011120776800CE53025E02423F87600080D
:1001EF007600AF271204D6E4FFEF75F007A42408BA
:1001FF00F8E6FC08E64C6046EF75F007A4240AF811
:10020F00E6FC08E64C7028EF75F007A4240EF806FC
:10021F00EF75F007A4240CF8E6FC08E6FD4C601E11
:10022F00EF75F007A4240AF8A60408A605800FEFBF
:10023F0075F007A4240AF808E616700218160FBF07
:02024F0002A704
:10025100D007D006D005D004D003D002D001D00001
:0B026100D0D0D082D083D0F0D0E032AB
:0204D6008F3164
:1004D80074282FF8E6F536200136E4F535F534F5BD
:1004E80033F532783212015CEC4D4E4F600330998F
:1004F800F2E4FFFEFDFCAB35AA34A933A832C312DF
:10050800014B700475161522C299D29B8536992223
:10051800E4F535F534F533F532783212015CEC4DFB
:100528004E4F60033099F2E4FFFEFDFCAB35AA3470
:10053800A933A832C312014B700475161522C2994B
:0A054800C29B742E2531F8E6F599E8
:010552002286
:1006B700300204C202C32274282FF8E6FE209804F1
:1006C700C2A7D322AD99C29830010D309A06EEB574
:0F06D7000502C322C2A7D32274212FF8A605C3A0
:0106E60022F1
:04077600C2AF80FE90
:0C076A00C2AFC2A712064E12075D80FB52
:03077D0002073D33
:01002A0022B3
:0D075D00300005C200C29722D200D29722C0
:030000000203BF39
:0C03BF00787FE4F6D8FD75813B0204064F
:10002E00E88FF0A4CC8BF0A42CFCE98EF0A42CFC71
:10003E008AF0EDA42CFCEA8EF0A4CDA8F08BF0A4EF
:10004E002DCC3825F0FDE98FF0A42CCD35F0FCEB4E
:10005E008EF0A4FEA9F0EB8FF0A4CFC5F02ECD3913
:0F006E00FEE43CFCEAA42DCE35F0FDE43CFC2280
:10007D0075F008758200EF2FFFEE33FECD33CDCC3A
:10008D0033CCC58233C5829BED9AEC99E5829840BD
:10009D000CF582EE9BFEED9AFDEC99FC0FD5F0D69A
:1000AD00E4CEFBE4CDFAE4CCF9A88222B800C1B9C4
:1000BD000059BA002DEC8BF084CFCECDFCE5F0CB02
:1000CD00F97818EF2FFFEE33FEED33FDEC33FCEB3B
:1000DD0033FB10D703994004EB99FB0FD8E5E4F9F6
:1000ED00FA227818EF2FFFEE33FEED33FDEC33FCE3
:1000FD00C933C910D7059BE99A4007EC9BFCE99AD7
:10010D00F90FD8E0E4C9FAE4CCFB2275F010EF2F1B
:10011D00FFEE33FEED33FDCC33CCC833C810D7071B
:10012D009BEC9AE899400AED9BFDEC9AFCE899F856
:0E013D000FD5F0DAE4CDFBE4CCFAE4C8F922E9
:10014B00EB9FF5F0EA9E42F0E99D42F0E89C45F00A
:01015B002281
:10015C007401FF3395E0FEFDFC080808E62FFFF65E
:10016C0018E63EFEF618E63DFDF618E63CFCF622D7
:06017C008A838982E4730E
:1003CB00020685E493A3F8E493A34003F68001F2BD
:1003DB0008DFF48029E493A3F85407240CC8C33333
:1003EB00C4540F4420C8834004F456800146F6DF02
:1003FB00E4800B0102040810204080900003E47E8F
:10040B00019360BCA3FF543F30E509541FFEE493F6
:10041B00A360010ECF54C025E060A840B8E493A3BD
:10042B00FAE493A3F8E493A3C8C582C8CAC583CAE8
:10043B00F0A3C8C582C8CAC583CADFE9DEE780BEA0
:01001F0000E0
:00000001FF
