:1002C700E4F521AF211201EA0521E521C39402409B
:1002D700F2E4F51675C804F5C975CDFC75CBFC7548
:0902E700CC1875CA18D2ADD2CAB8
:0102F00022EB
:03032000D2AF2237
:03002B000200BA16
:1000BA00C0E0C0F0C0D075D000C000C004C005C008
:0100CA00072E
:1000CB00C2CFE4FFEF75F007A42408F8E6FC08E6BE
:1000DB004C6046EF75F007A4240AF8E6FC08E64CE2
:1000EB007028EF75F007A4240EF806EF75F007A43F
:1000FB00240CF8E6FC08E6FD4C601EEF75F007A437
:10010B00240AF8A60408A605800FEF75F007A424AF
:0D011B000AF808E616700218160FBF02A7BA
:0F012800D007D005D004D000D0D0D0F0D0E03236
:10029B001202C712030D7E027F6A7B017A007D0A70
:1002AB007C001201377E007F037B607AEAE4FDFC61
:0C02BB0012013712032012019680FB2272
:03031C00011600C7
:10019600E4F521E52175F007A4240EF8E6D39400D2
:1001A6004032E52175F007A42408F8E6FE08E6AA21
:1001B60006F9120307E52175F007A4240EF816E5E3
:1001C6002175F007A4240CF8E6FE08E64E7005AF8C
:1001D600211201EA0521E521C3940240B612023339
:0301E600120027DD
:0101E90022F3
:080137008E218F228C238D2400
:10013F00E4FEEE75F007A42408F8E6FC08E64C6030
:10014F0009EEC3940250030E80E8BE020675160135
:10015F007F0222EE75F007A42408F8A62108A62234
:10016F00EE75F007A4240AF8A62308A624EE75F06E
:10017F0007A4240CF8A60208A603EE75F007A42422
:06018F000EF8E4F6AF06D5
:010195002247
:1001EA00EF75F007A42408F8E6FC08E64C700775DA
:1001FA001602D2008002C200EF75F007A42408F8A4
:10020A00E4F608F6EF75F007A4240AF8E4F608F60F
:10021A00EF75F007A4240CF8E4F608F6EF75F0077A
:08022A00A4240EF8E4F6A20082
:0102320022A9
:10023300E5166517601BC374FF9516F5A0851617A1
:10024300E51660077518EA75196022E4F518F519C3
:1002530022E5194518600FE51915197002151814D0
:0702630045187002F5162298
:0400270043870122E8
:0F030D00751A02751B00751C02E4F51DF51E2202
:10026A00051EE51E7002051DC3951AE51D94004082
:10027A000BE4F51DF51E851C1AC2A022E51AC3134C
:10028A00FFC3E51E9FE51D94005003D2A022C2A021
:01029A002241
:100003007402251CF51CE4351BF51BFEAF1CE4FC38
:10001300FD7B607AEAF9F8D31202F15006751B00F2
:04002300751C022224
:0300000002002ECD
:0C002E00787FE4F6D8FD7581240200758F
:1002F100EB9FF5F0EA9E42F0E99D42F0EC6480C884
:0603010064809845F02223
:060307008A838982E47381
:10003A0002029BE493A3F8E493A34003F68001F23F
:10004A0008DFF48029E493A3F85407240CC8C333C7
:10005A00C4540F4420C8834004F456800146F6DF96
:10006A00E4800B010204081020408090031CE47E07
:10007A00019360BCA3FF543F30E509541FFEE4938B
:10008A00A360010ECF54C025E060A840B8E493A352
:10009A00FAE493A3F8E493A3C8C582C8CAC583CA7D
:1000AA00F0A3C8C582C8CAC583CADFE9DEE780BE35
:01031F0000DD
:00000001FF
