:0305B400C202225E
:0D058A00300205C202C2A322D202D2A32277
:1004EA007F807E251203751205B41200187E057FDF
:1004FA008A7BC87A00E4FDFC1203167E027F8B7B9E
:10050A00C87A007D0A7C0012031612046F1203D205
:03051A0080FB2241
:0305A4000116003D
:1003D200E4F51AE51A75F007A4240EF8E6D39400A2
:1003E2004032E51A75F007A42408F8E6FE08E6AAEA
:1003F20006F9120143E51A75F007A4240EF816E572
:100402001A75F007A4240CF8E6FE08E64E7005AF54
:100412001A120426051AE51AC3940240B61204B34E
:0304220012001FA6
:0104250022B4
:080316008E1A8F1B8C1C8D1D3B
:10031E00E4FEEE75F007A42408F8E6FC08E64C604F
:10032E0009EEC3940250030E80E8BE020675160154
:10033E007F0222EE75F007A42408F8A61A08A61B61
:10034E00EE75F007A4240AF8A61C08A61DEE75F09B
:10035E0007A4240CF8A60208A603EE75F007A42441
:06036E000EF8E4F6AF06F4
:010374002266
:10042600EF75F007A42408F8E6FC08E64C7007759B
:100436001602D2038002C203EF75F007A42408F85F
:10044600E4F608F6EF75F007A4240AF8E4F608F6D1
:10045600EF75F007A4240CF8E4F608F6EF75F0073C
:08046600A4240EF8E4F6A20341
:01046E00226B
:1004B300E5166517601BC374FF9516F5808516173F
:1004C300E51660077518EA75196022E4F518F51941
:1004D30022E5194518600FE519151970021518144E
:0704E30045187002F5162216
:04001F0043870122F0
:070018007523021205772297
:10028B0012051DE52314602914604214605B146091
:10029B007324047075C2A0D2A1D2A20522E52270EC
:1002AB00020521640A45217061752301F521F522B0
:1002BB0022C2A0C2A1D2A20522E5227002052164AE
:1002CB000A45217045752302F521F52222D2A0D2D1
:1002DB00A1C2A20522E52270020521640A45217004
:1002EB0029752303F521F52222D2A0C2A1D2A205A2
:1002FB0022E52270020521640A4521700DF523F5D4
:0A030B0021F52222D2A0D2A1D2A235
:0103150022C5
:02051D00151EA9
:10051F00A81EE4F6E526B40107752304A81E76018C
:10052F001205B7500A752304752401A81E7601A879
:04053F001EE624FF91
:07054300C0D0051ED0D0223C
:0205B700C3225D
:1005770012051D4007C2A0D2A1D2A222D2A0D2A1A9
:03058700D2A222DB
:0805A700012432C1000125000E
:040375008E1A8F1B32
:10037900E4F51CAF1C120426051CE51CC3940240BD
:10038900F2E4F516C2A7C2B3C2B2D20153877F7590
:1003990098D2438920AE1AAF1BFCFD7BE07A2EF977
:1003A900F8120026A804A905AA06AB077FC07E0B90
:1003B9007D5A7C161200B1EFF404F58D858D8BD230
:0803C9008ED299D2AC1205B9E5
:0103D1002209
:10046F00E4F51AF51BC203C2AF1205B0E4F51B7514
:10047F0016031204B31205973098FAAF99C298BFBA
:10048F003215309A12051BD2B2C299D29B7599328E
:10049F003099FDC2B28003E4F51BE51BC394024003
:0304AF00D4D2AFF5
:0104B2002227
:030023000201498E
:10014900C0E0C0F0C083C082C0D075D000C000C07C
:0D01590001C002C003C004C005C006C007FD
:10016600309877D2A7200104D2018002C20112057D
:100176004ABF3206120003120597E4FFEF75F00737
:10018600A42408F8E6FC08E64C6047EF75F007A4DF
:10019600240AF8E6FC08E64C7029EF75F007A4245B
:1001A6000EF87601EF75F007A4240CF8E6FC08E6D5
:1001B600FD4C601EEF75F007A4240AF8A60408A6F5
:1001C60005800FEF75F007A4240AF808E6167002FA
:0E01D60018160FBF02A6C2988004C2B2C299CA
:1001E400D007D006D005D004D003D002D001D0006F
:0B01F400D0D0D082D083D0F0D0E03219
:10000300D2B2200108C299D29B75993222C299C2F9
:050013009B85249922E9
:10054A00209805C2A77F0022AF99C29820010A8F7E
:10055A0025209A16E4F5258011E525B43207209A5C
:0C056A00048F268005E4F525C2A7AF250C
:010576002262
:0105B900221F
:0D059700300005C200C29722D200D2972288
:0405B0001205772297
:030000000201FFFB
:0C01FF00787FE4F6D8FD758126020246E8
:10002600E88FF0A4CC8BF0A42CFCE98EF0A42CFC79
:100036008AF0EDA42CFCEA8EF0A4CDA8F08BF0A4F7
:100046002DCC3825F0FDE98FF0A42CCD35F0FCEB56
:100056008EF0A4FEA9F0EB8FF0A4CFC5F02ECD391B
:0F006600FEE43CFCEAA42DCE35F0FDE43CFC2288
:1000750075F008758200EF2FFFEE33FECD33CDCC42
:1000850033CCC58233C5829BED9AEC99E5829840C5
:100095000CF582EE9BFEED9AFDEC99FC0FD5F0D6A2
:1000A500E4CEFBE4CDFAE4CCF9A88222B800C1B9CC
:1000B5000059BA002DEC8BF084CFCECDFCE5F0CB0A
:1000C500F97818EF2FFFEE33FEED33FDEC33FCEB43
:1000D50033FB10D703994004EB99FB0FD8E5E4F9FE
:1000E500FA227818EF2FFFEE33FEED33FDEC33FCEB
:1000F500C933C910D7059BE99A4007EC9BFCE99ADF
:10010500F90FD8E0E4C9FAE4CCFB2275F010EF2F23
:10011500FFEE33FEED33FDCC33CCC833C810D70723
:100125009BEC9AE899400AED9BFDEC9AFCE899F85E
:0E0135000FD5F0DAE4CDFBE4CCFAE4C8F922F1
:060143008A838982E47347
:10020B000204EAE493A3F8E493A34003F68001F21B
:10021B0008DFF48029E493A3F85407240CC8C333F4
:10022B00C4540F4420C8834004F456800146F6DFC3
:10023B00E4800B01020408102040809005A4E47EAA
:10024B00019360BCA3FF543F30E509541FFEE493B8
:10025B00A360010ECF54C025E060A840B8E493A37F
:10026B00FAE493A3F8E493A3C8C582C8CAC583CAAA
:10027B00F0A3C8C582C8CAC583CADFE9DEE780BE62
:0105AF00004B
:00000001FF
