:03000300011600E3
:10052F00E4F51AE51A75F007A4240EF8E6D3940043
:10053F004032E51A75F007A42408F8E6FE08E6AA8B
:10054F0006F91206ACE51A75F007A4240EF816E5A5
:10055F001A75F007A4240CF8E6FE08E64E7005AFF6
:10056F001A120583051AE51AC3940240B61206D46F
:03057F001206D58C
:010582002256
:0804D0008E1A8F1B8C1C8D1D80
:1004D800E4FEEE75F007A42408F8E6FC08E64C6094
:1004E80009EEC3940250030E80E8BE020675160199
:1004F8007F0222EE75F007A42408F8A61A08A61BA6
:10050800EE75F007A4240AF8A61C08A61DEE75F0DF
:1005180007A4240CF8A60208A603EE75F007A42485
:060528000EF8E4F6AF0638
:01052E0022AA
:10058300EF75F007A42408F8E6FC08E64C7007753D
:100593001602D2018002C201EF75F007A42408F805
:1005A300E4F608F6EF75F007A4240AF8E4F608F673
:1005B300EF75F007A4240CF8E4F608F6EF75F007DE
:0805C300A4240EF8E4F6A201E5
:0105CB00220D
:0106D4002203
:0106D5002202
:100608001206C212015A1200287E007F1B7BA77AAD
:1006180000E4FDFC1204D07E027FFB7BA77A007DFC
:0F0628001E7C001204D012038612052F80FB22C5
:100664005389F0438901C2A9E4FDFCC3ED9FEC9ECC
:100674005016758CF9758AE1C28DD28C308DFDC20D
:080684008C0DBD00010C80E3A8
:01068C00224B
:03002800C20222EF
:0D001B00300205C202C2EB22D202D2EB225B
:0706C200E4F53112068D2260
:1002FB00120637E53114602914604214605B1460F8
:10030B007324047075C2E8D2E9D2EA0530E5307087
:10031B0002052F640A452F7061753101F52FF530F9
:10032B0022C2E8C2E9D2EA0530E5307002052F643B
:10033B000A452F7045753102F52FF53022D2E8D2E0
:10034B00E9C2EA0530E5307002052F640A452F70CB
:10035B0029753103F52FF53022D2E8C2E9D2EA052F
:10036B0030E5307002052F640A452F700DF531F51D
:0A037B002FF53022D2E8D2E9D2EAD1
:010385002255
:02063700151E8E
:10063900A81EE4F6E521B40107753104A81E760168
:100649001206D2500A753104752B01A81E7601A82D
:040659001EE624FF76
:07065D00C0D0051ED0D02221
:0206D200C32241
:10068D001206374007C2E8D2E9D2EA22D2E8D2E90F
:03069D00D2EA227C
:10000600042B4D000000012700C183012901012AAC
:0400160002012800BB
:10015A00C2AF1206BAD2ECE4F51AAF1A1205830539
:10016A001AE51AC3940240F2E4F516FFEF25E024DB
:10017A0025F8E4F608F674292FF8E6FE74282FF815
:10018A00A6060FBF01E6D203E4F52775B12090F762
:10019A00007441F090F7057434F090F7047442F05B
:1001AA0090F70774FFF090F706F090F709F090F7D0
:1001BA0008F090F70B74F8F090F70A74FFF090F7D4
:1001CA00117455F090F7107495F090F716745CF06E
:1001DA0090F713E4F090F712F090F715F090F714F7
:1001EA00F090F717F0A3F0A3F0A3F0A3F090F72193
:1001FA007455F090F7207495F090F7267404F090F7
:10020A00F723E4F090F722F090F72574F8F090F7CE
:10021A00247407F07F0275F010EF90F7111206A010
:10022A007455F075F010EF90F7101206A07455F09F
:10023A000FBF0FE290F700E4F0D2CF75CC7875CDFE
:10024A00EC43C811D2ADC2BF75CA7875CBECC2BA3D
:10025A00F5C2F5C3F5C4F5C5F5C6F5C7C2BBC2BC40
:04026A00C2BDF5C15B
:01026E00226D
:100386001206C91206CEC2EC7516031206D4E4F59F
:100396001B7F1E7E001206641206C9051BE51BC3E1
:1003A600940A40EDE4F51AF51C1206C97428251CBA
:1003B600F8E6FF120404EF24FF9201300106051A45
:1003C600051C801B742A251CF8E6FF7428251CF8DA
:1003D600E66F60097428251CF8A6078002051CE54F
:1003E6001CC3940140C3E51A94015007751604C254
:0D03F600EC8005E4F516D2ECE4F5C0D2AFC2
:0104030022D6
:03002B0002002EA2
:10002E00C0E0C0F0C083C082C0D075D000C000C098
:0D003E0001C002C003C004C005C006C00719
:10004B00C2C61206C9D2ECAF270527E527C3940118
:10005B0040037527001204705041751605C2EC74ED
:10006B002A2527F8E6FF74282527F8E66F60097420
:10007B00282527F8A607800E74292527F8E6FF7494
:10008B00282527F8A60774282527F8E6FF1204046D
:10009B00EF24FF92002000031206B2AF271205CC0B
:1000AB0090F701E05407602B751606C2ECE020E0D8
:1000BB0003D38001C392FB90F701E020E103D380CF
:1000CB0001C392FC90F701E020E203D38001C392BD
:1000DB00FD8006D2FBD2FCD2FDE4FFEF75F007A446
:1000EB002408F8E6FC08E64C6046EF75F007A424FC
:1000FB000AF8E6FC08E64C7028EF75F007A4240E0E
:10010B00F806EF75F007A4240CF8E6FC08E6FD4CA6
:10011B00601EEF75F007A4240AF8A60408A6058054
:10012B000FEF75F007A4240AF808E61670021816EC
:04013B000FBF02A749
:10013F00D007D006D005D004D003D002D001D00014
:0B014F00D0D0D082D083D0F0D0E032BE
:1005CC0074282FF8E690F717F0EF25E025E0242BA0
:1005DC00F8E6A3F0EF25E025E0242CF8E6A3F0EFF5
:1005EC0025E025E0242DF8E6A3F0EF25E025E02416
:0B05FC002EF8E6A3F090F71174E7F072
:0106070022D0
:10047000300304C203C32290F721E05403640270E6
:100480004D90F727E0FEA3E0FDEF25E025E02421D5
:10049000F8A605A3E0FDEF25E025E02422F8A60557
:1004A000A3E0FDEF25E025E02423F8A605A3E0FD69
:1004B000EF25E025E02424F8A60590F72074FDF050
:0F04C000A3F074282FF8E6FFEEB50702C322D38E
:0104CF00220A
:0806B200C2AF1206C980FB2251
:0406CE0012068D2261
:0806BA007586EBD2AED2BE2220
:0506C900D2AED2BE22FA
:0C040400151EA81EA607151E151E151EAD
:10041000A81EE4F690F717F0E51E2403F8E6A3F013
:1004200090F71174E7F07F057E0012066490F721C3
:10043000E054036402702E90F727E0A81E0808F627
:10044000A3E0A81E08F690F72074FDF0A3F0A81E04
:100450000808E67010E51E2403F9A81E08E6677078
:0904600004A81E7601A81EE6FFA7
:07046900E51E2404F51E222C
:0300000002026F8A
:0C026F00787FE4F6D8FD7581310202B6FC
:0C06A000A42582F582E5F03583F5832265
:0606AC008A838982E473D9
:10027B00020608E493A3F8E493A34003F68001F28B
:10028B0008DFF48029E493A3F85407240CC8C33384
:10029B00C4540F4420C8834004F456800146F6DF53
:1002AB00E4800B0102040810204080900003E47EE0
:1002BB00019360BCA3FF543F30E509541FFEE49348
:1002CB00A360010ECF54C025E060A840B8E493A30F
:1002DB00FAE493A3F8E493A3C8C582C8CAC583CA3A
:1002EB00F0A3C8C582C8CAC583CADFE9DEE780BEF2
:01001A0000E5
:00000001FF
