:1002E700E4F513AF131202670513E513C394014036
:1002F700F2E4F50F75C804F5C975CDFC75CBFC752F
:09030700CC1875CA18D2ADD2CA97
:0103100022CA
:03002800D2AF2232
:03002B0002013897
:10013800C0E0C0F0C0D075D000C000C004C005C089
:0101480007AF
:10014900C2CFE4FFEF75F007A42408F8E6FC08E63F
:100159004C6046EF75F007A4240AF8E6FC08E64C63
:100169007028EF75F007A4240EF806EF75F007A4C0
:10017900240CF8E6FC08E6FD4C601EEF75F007A4B8
:10018900240AF8A60408A605800FEF75F007A42431
:0D0199000AF808E616700218160FBF01A73D
:0F01A600D007D005D004D000D0D0D0F0D0E032B8
:100003001202E7E4FF1203197E007FBA7BE87A034A
:0F0013007D1E7C001201B512002812021480FB22
:03031500010F00D5
:10021400E4F513E51375F007A4240EF8E6D394006F
:100224004032E51375F007A42408F8E6FE08E6AAB0
:1002340006F9120022E51375F007A4240EF816E55A
:100244001375F007A4240CF8E6FE08E64E7005AF1B
:10025400131202670513E513C3940140B61202B0EA
:0302640002031181
:0801B5008E138F148C158D16BA
:1001BD00E4FEEE75F007A42408F8E6FC08E64C60B2
:1001CD0009EEC3940150030E80E8BE0106750F01C0
:1001DD007F0122EE75F007A42408F8A61308A614D3
:1001ED00EE75F007A4240AF8A61508A616EE75F00C
:1001FD0007A4240CF8A60208A603EE75F007A424A4
:06020D000EF8E4F6AF0656
:0102130022C8
:10026700EF75F007A42408F8E6FC08E64C7007755C
:100277000F02D2008002C200EF75F007A42408F82D
:10028700E4F608F6EF75F007A4240AF8E4F608F692
:10029700EF75F007A4240CF8E4F608F6EF75F007FD
:0802A700A4240EF8E4F6A20005
:0102AF00222C
:1002B000E50F6510601BC374FF950FF5B0850F1037
:1002C000E50F60077511EA75126022E4F511F51269
:1002D00022E5124511600FE5121512700215111476
:0702E00045117002F50F2229
:0403110043870122FB
:030319008F192217
:1000BA00E51914602614603F1460582403706EC258
:1000CA00A0D2A1D2A20518E51870020517640A4544
:1000DA0017705A751901F517F51822C2A0C2A1D2D4
:1000EA00A20518E51870020517640A4517703E75CF
:1000FA001902F517F51822D2A0D2A1C2A20518E555
:10010A001870020517640A45177022751903F51746
:10011A00F51822D2A0C2A1D2A20518E518700205CC
:0D012A0017640A45177006F519F517F5184A
:0101370022A5
:0300000002002ECD
:0C002E00787FE4F6D8FD75812002007593
:060022008A838982E47369
:10003A00020003E493A3F8E493A34003F68001F2D9
:10004A0008DFF48029E493A3F85407240CC8C333C7
:10005A00C4540F4420C8834004F456800146F6DF96
:10006A00E4800B0102040810204080900315E47E0E
:10007A00019360BCA3FF543F30E509541FFEE4938B
:10008A00A360010ECF54C025E060A840B8E493A352
:10009A00FAE493A3F8E493A3C8C582C8CAC583CA7D
:1000AA00F0A3C8C582C8CAC583CADFE9DEE780BE35
:0103180000E4
:00000001FF
