:10008F00E4F50BF50AF509F5081200F578081200EA
:10009F00D5E47B107A27F9F8C31200C450EE050D92
:1000AF00E50D7002050C120109E4F50BF50AF509CF
:0400BF00F50880D8E8
:0100C300221A
:04011B00020C0000D2
:1000F50053C8FD43C902E4F5CCF5CDF5CAF5CBC22D
:04010500ADD2CA228B
:10010900C2CA850DCC85CCCAE50CF5CD85CDCBD23F
:02011900CA22F8
:03000000020003F8
:0C000300787FE4F6D8FD75810D02004AFC
:1000C400EB9FF5F0EA9E42F0E99D42F0E89C45F092
:0100D4002209
:1000D5007401FF3395E0FEFDFC080808E62FFFF6E6
:1000E50018E63EFEF618E63DFDF618E63CFCF6225F
:10000F0002008FE493A3F8E493A34003F68001F278
:10001F0008DFF48029E493A3F85407240CC8C333F2
:10002F00C4540F4420C8834004F456800146F6DFC1
:10003F00E4800B010204081020408090011BE47E35
:10004F00019360BCA3FF543F30E509541FFEE493B6
:10005F00A360010ECF54C025E060A840B8E493A37D
:10006F00FAE493A3F8E493A3C8C582C8CAC583CAA8
:10007F00F0A3C8C582C8CAC583CADFE9DEE780BE60
:01011F0000DF
:00000001FF
