:1003540012032A7E017F377B0A7A007D647C0012B7
:1003640001AA7E027F5D7B037A00E4FDFC1201AAF0
:0903740012037D12020980FB2234
:03001700011600CF
:10020900E4F521E52175F007A4240EF8E6D394005E
:100219004032E52175F007A42408F8E6FE08E6AAAD
:1002290006F9120021E52175F007A4240EF816E558
:100239002175F007A4240CF8E6FE08E64E7005AF18
:10024900211202AA0521E521C3940240B61202F344
:0302590012002769
:01025C00227F
:0801AA008E218F228C238D248D
:1001B200E4FEEE75F007A42408F8E6FC08E64C60BD
:1001C20009EEC3940250030E80E8BE0206751601C2
:1001D2007F0222EE75F007A42408F8A62108A622C1
:1001E200EE75F007A4240AF8A62308A624EE75F0FB
:1001F20007A4240CF8A60208A603EE75F007A424AF
:060202000EF8E4F6AF0661
:0102080022D3
:1002AA00EF75F007A42408F8E6FC08E64C70077519
:1002BA001602D2008002C200EF75F007A42408F8E3
:1002CA00E4F608F6EF75F007A4240AF8E4F608F64F
:1002DA00EF75F007A4240CF8E4F608F6EF75F007BA
:0802EA00A4240EF8E4F6A200C2
:0102F20022E9
:1002F300E5166517601BC374FF9516F590851617F1
:10030300E51660077518EA75196022E4F518F51902
:1003130022E5194518600FE519151970021518140F
:0703230045187002F51622D7
:0400270043870122E8
:10032A00E4F521AF211202AA0521E521C394024076
:10033A00F2E4F51675C804F5C975CDFC75CBFC75E4
:09034A00CC1875CA18D2ADD2CA54
:010353002287
:03037D00D2AF22DA
:03002B000200BA16
:1000BA00C0E0C0F0C0D075D000C000C004C005C008
:0100CA00072E
:1000CB00C2CFE4FFEF75F007A42408F8E6FC08E6BE
:1000DB004C6046EF75F007A4240AF8E6FC08E64CE2
:1000EB007028EF75F007A4240EF806EF75F007A43F
:1000FB00240CF8E6FC08E6FD4C601EEF75F007A437
:10010B00240AF8A60408A605800FEF75F007A424AF
:0D011B000AF808E616700218160FBF02A7BA
:0F012800D007D005D004D000D0D0D0F0D0E03236
:10013700C200C2010525E525B43C1BE4F525D20024
:100147000526E526B43C0FE4F526D2010527E52769
:10015700B41803E4F527300017E52675F00A8490F4
:10016700000393F51CE52675F00A84E5F093F51B6B
:10017700E52520E010E52775F00A84E5F0900003F7
:1001870093F51D800EE52775F00A84E5F090000DC4
:1001970093F51D30010CE52775F00A849000039351
:0201A700F51E43
:0101A9002233
:100003003F065B4F666D7D077F6FBF86DBCFE6EDF7
:04001300FD87FFEF77
:06001A00041B3F3F3F3FC5
:10025D00051AE51AB40403E4F51AE51A146014142A
:10026D00601B14602224037026C2B3C2B4C2B5D27F
:10027D00B6801CC2B3C2B4D2B5C2B68012C2B3D25C
:10028D00B4C2B5C2B68008D2B3C2B4C2B5C2B674D8
:0D029D001B251AF8E6FFC374FF9FF5A02291
:0300000002002ECD
:0C002E00787FE4F6D8FD7581270200758C
:060021008A838982E4736A
:10003A00020354E493A3F8E493A34003F68001F285
:10004A0008DFF48029E493A3F85407240CC8C333C7
:10005A00C4540F4420C8834004F456800146F6DF96
:10006A00E4800B0102040810204080900017E47E0F
:10007A00019360BCA3FF543F30E509541FFEE4938B
:10008A00A360010ECF54C025E060A840B8E493A352
:10009A00FAE493A3F8E493A3C8C582C8CAC583CA7D
:1000AA00F0A3C8C582C8CAC583CADFE9DEE780BE35
:0100200000DF
:00000001FF
