:10000300512E51B57E007F1B7BE87A03E4FDFC3162
:08001300361128319580FC2212
:0302B100010F003A
:10019500E4F513E51375F007A4240EF8E6D39400EF
:1001A5004030E51375F007A42408F8E6FE08E6AA32
:1001B50006F951ABE51375F007A4240EF816E513FF
:1001C50075F007A4240CF8E6FE08E64E7004AF139C
:0F01D50031E50513E513C3940140B8516D51A4F2
:0101E40022F8
:080136008E138F148C158D1639
:10013E00E4FEEE75F007A42408F8E6FC08E64C6031
:10014E0009EEC3940150030E80E8BE0106750F013F
:10015E007F0122EE75F007A42408F8A61308A61452
:10016E00EE75F007A4240AF8A61508A616EE75F08B
:10017E0007A4240CF8A60208A603EE75F007A42423
:06018E000EF8E4F6AF06D6
:010194002248
:1001E500EF75F007A42408F8E6FC08E64C700775DF
:1001F5000F02D2018002C201EF75F007A42408F8AE
:10020500E4F608F6EF75F007A4240AF8E4F608F614
:10021500EF75F007A4240CF8E4F608F6EF75F0077F
:08022500A4240EF8E4F6A20186
:01022D0022AE
:10026D00E50F6510601BC374FF950FF5A0850F108A
:10027D00E50F60077511EA75126022E4F511F512AC
:10028D0022E5124511600FE51215127002151114B9
:07029D0045117002F50F226C
:0702A400438701438720227C
:10022E00E4F513AF1331E50513E513C3940140F361
:10023E00E4F50FC2CF75CDF975CC7D75CBF975CAC6
:10024E007D43C811D2ADC2BFC2BAF5C2F5C3F5C463
:0E025E00F5C5F5C6F5C7C2BBC2BCC2BDF5C131
:01026C00226F
:03002800D2AF2232
:02002B0001B919
:1000B900C0E0C0F0C0D075D000C000C004C005C009
:0100C900072F
:1000CA00C2C6E4FFEF75F007A42408F8E6FC08E6C8
:1000DA004C6046EF75F007A4240AF8E6FC08E64CE3
:1000EA007028EF75F007A4240EF806EF75F007A440
:1000FA00240CF8E6FC08E6FD4C601EEF75F007A438
:10010A00240AF8A60408A605800FEF75F007A424B0
:0D011A000AF808E616700218160FBF01A7BC
:0F012700D007D005D004D000D0D0D0F0D0E03237
:0302B500C2002262
:0D001B00300005C200C29522D200D295220D
:0300000002002DCE
:0C002D00787FE4F6D8FD75812002007495
:0602AB008A838982E473DE
:10003900020003E493A3F8E493A34003F68001F2DA
:1000490008DFF48029E493A3F85407240CC8C333C8
:10005900C4540F4420C8834004F456800146F6DF97
:10006900E4800B01020408102040809002B1E47E74
:10007900019360BCA3FF543F30E509541FFEE4938C
:10008900A360010ECF54C025E060A840B8E493A353
:10009900FAE493A3F8E493A3C8C582C8CAC583CA7E
:1000A900F0A3C8C582C8CAC583CADFE9DEE780BE36
:0102B4000049
:00000001FF
