:0302AD00010F003E
:10019D00E4F513E51375F007A4240EF8E6D39400E7
:1001AD004030E51375F007A42408F8E6FE08E6AA2A
:1001BD0006F951A3E51375F007A4240EF816E513FF
:1001CD0075F007A4240CF8E6FE08E64E7004AF1394
:0F01DD0031ED0513E513C3940140B8513651A914
:0101EC0022F0
:08013E008E138F148C158D1631
:10014600E4FEEE75F007A42408F8E6FC08E64C6029
:1001560009EEC3940150030E80E8BE0106750F0137
:100166007F0122EE75F007A42408F8A61308A6144A
:10017600EE75F007A4240AF8A61508A616EE75F083
:1001860007A4240CF8A60208A603EE75F007A4241B
:060196000EF8E4F6AF06CE
:01019C002240
:1001ED00EF75F007A42408F8E6FC08E64C700775D7
:1001FD000F02D2018002C201EF75F007A42408F8A6
:10020D00E4F608F6EF75F007A4240AF8E4F608F60C
:10021D00EF75F007A4240CF8E4F608F6EF75F00777
:08022D00A4240EF8E4F6A2017E
:0102350022A6
:10023600E50F6510601BC374FF950FF5A0850F10C1
:10024600E50F60077511EA75126022E4F511F512E3
:1002560022E5124511600FE51215127002151114F0
:0702660045117002F50F22A3
:0402A9004387012264
:0302B100C2002266
:0D028B00300005C200C29522D200D295229B
:10000300516D51B17E027F8B7BE87A03E4FDFC31B5
:080013003E51B4319D80FC2236
:10026D00E4F513AF1331ED0513E513C3940140F31A
:0D027D00E4F50F53890F4389105198D2AB5F
:01028A002251
:0302B400D2AF22A4
:02001B00011DC5
:10001D00C0E0C0F0C083C082C0D075D000C000C0A9
:0D002D0001C002C003C004C005C006C0072A
:10003A005198E4FFEF75F007A42408F8E6FC08E6F7
:10004A004C6046EF75F007A4240AF8E6FC08E64C73
:10005A007028EF75F007A4240EF806EF75F007A4D0
:10006A00240CF8E6FC08E6FD4C601EEF75F007A4C8
:10007A00240AF8A60408A605800FEF75F007A42441
:0D008A000AF808E616700218160FBF01A74D
:10009700D007D006D005D004D003D002D001D000BD
:0B00A700D0D0D082D083D0F0D0E03267
:0B029800C28E758B18758DFCD28E2273
:030000000200B249
:0C00B200787FE4F6D8FD7581200200F98B
:0602A3008A838982E473E6
:1000BE00020003E493A3F8E493A34003F68001F255
:1000CE0008DFF48029E493A3F85407240CC8C33343
:1000DE00C4540F4420C8834004F456800146F6DF12
:1000EE00E4800B01020408102040809002ADE47EF3
:1000FE00019360BCA3FF543F30E509541FFEE49307
:10010E00A360010ECF54C025E060A840B8E493A3CD
:10011E00FAE493A3F8E493A3C8C582C8CAC583CAF8
:10012E00F0A3C8C582C8CAC583CADFE9DEE780BEB0
:0102B000004D
:00000001FF
