:1002F9001203281200241203AF7E037F907BE87A51
:1003090003E4FDFC1201C67E007FBA7BE87A037D17
:0F0319001E7C001201C612000312022580FB2277
:0303A7000116003C
:10022500E4F51AE51A75F007A4240EF8E6D3940050
:100235004032E51A75F007A42408F8E6FE08E6AA98
:1002450006F912039DE51A75F007A4240EF816E5C4
:100255001A75F007A4240CF8E6FE08E64E7005AF03
:100265001A120279051AE51AC3940240B61202C29F
:030275001203A3CE
:010278002263
:0801C6008E1A8F1B8C1C8D1D8D
:1001CE00E4FEEE75F007A42408F8E6FC08E64C60A1
:1001DE0009EEC3940250030E80E8BE0206751601A6
:1001EE007F0222EE75F007A42408F8A61A08A61BB3
:1001FE00EE75F007A4240AF8A61C08A61DEE75F0ED
:10020E0007A4240CF8A60208A603EE75F007A42492
:06021E000EF8E4F6AF0645
:0102240022B7
:10027900EF75F007A42408F8E6FC08E64C7007754A
:100289001602D2018002C201EF75F007A42408F812
:10029900E4F608F6EF75F007A4240AF8E4F608F680
:1002A900EF75F007A4240CF8E4F608F6EF75F007EB
:0802B900A4240EF8E4F6A201F2
:0102C100221A
:1002C200E5166517601BC374FF9516F59085161722
:1002D200E51660077518EA75196022E4F518F51934
:1002E20022E5194518600FE5191519700215181441
:0702F20045187002F5162209
:0403A3004387012269
:100354005389F0438901C2A9E4FDFCC3ED9FEC9EDF
:100364005016758CFC758A54C28DD28C308DFDC2AA
:080374008C0DBD00010C80E3BB
:01037C00225E
:0303AF00C2002267
:0D039000300005C200C2A722D200D2A72271
:07002400E4F52312037D2225
:1000BA001203B2E52314602914604214605B1460D1
:1000CA007324047075C2A0D2A1D2A20522E52270BF
:1000DA00020521640A45217061752301F521F52283
:1000EA0022C2A0C2A1D2A20522E522700205216481
:1000FA000A45217045752302F521F52222D2A0D2A4
:10010A00A1C2A20522E52270020521640A452170D6
:10011A0029752303F521F52222D2A0C2A1D2A20574
:10012A0022E52270020521640A4521700DF523F5A6
:0A013A0021F52222D2A0D2A1D2A208
:010144002298
:0203B200C32264
:10037D001203B24007C2A0D2A1D2A222D2A0D2A112
:03038D00D2A222D7
:10032800C2AFE4F51AAF1A120279051AE51AC39496
:100338000240F2E4F51675C804F5C975CDFC75CB15
:0B034800FC75CC1875CA18D2ADD2CAE3
:010353002287
:100003001203AB7FF47E01120354D2A57F057E0059
:10001300120354C2A57F057E00120354D2A5D2AFAA
:0100230022BA
:03002B000201458A
:10014500C0E0C0F0C0D075D000C000C004C005C07C
:0101550007A2
:10015600C2CFC2A5E4FFEF75F007A42408F8E6FCB9
:1001660008E64C6046EF75F007A4240AF8E6FC089A
:10017600E64C7028EF75F007A4240EF806EF75F02C
:1001860007A4240CF8E6FC08E6FD4C601EEF75F0AB
:1001960007A4240AF8A60408A605800FEF75F00741
:1001A600A4240AF808E616700218160FBF02A7D292
:0101B600A5A3
:0F01B700D007D005D004D000D0D0D0F0D0E032A7
:0403AB0012037D229A
:0300000002002ECD
:0C002E00787FE4F6D8FD75812302007590
:06039D008A838982E473EB
:10003A000202F9E493A3F8E493A34003F68001F2E1
:10004A0008DFF48029E493A3F85407240CC8C333C7
:10005A00C4540F4420C8834004F456800146F6DF96
:10006A00E4800B01020408102040809003A7E47E7C
:10007A00019360BCA3FF543F30E509541FFEE4938B
:10008A00A360010ECF54C025E060A840B8E493A352
:10009A00FAE493A3F8E493A3C8C582C8CAC583CA7D
:1000AA00F0A3C8C582C8CAC583CADFE9DEE780BE35
:0103AA000052
:00000001FF
