:1000AE00C290C291C292C293C294C295C296C29796
:1000BE0075091CE50925E0F50AE50975F003A4F5B7
:1000CE000BE50925E025E0F50CE50975F005A4F52D
:1000DE000DE50975F006A4F50EE50975F007A4F512
:0A00EE000FE50975F008A4F51022D3
:10000300AF08EFC3950940047E0180027E00BE0164
:1000130003D38001C39290EFC3950A40047E01800D
:10002300027E00BE0103D38001C39291EFC3950BFF
:1000330040047E0180027E00BE0103D38001C3928F
:1000430092EFC3950C40047E0180027E00BE010343
:10005300D38001C39293EFC3950D40047E018002C8
:100063007E00BE0103D38001C39294EFC3950E407B
:10007300047E0180027E00BE0103D38001C39295FA
:10008300EFC3950F40047E0180027E00BE0103D3BF
:100093008001C39296EFC3951040047F0180027FD5
:0A00A30000BF0103D38001C3929750
:0100AD002230
:1000F8001200AE0512E51270020511FFAE11BE0323
:100108000ABFE807E4F511F512050812000380E3B9
:03000000020118E2
:0C011800787FE4F6D8FD7581120200F833
:00000001FF
