:03071B0001520088
:10051100E4F521E52175F007A4244AF8E6D3940017
:100521004032E52175F007A42444F8E6FE08E6AA66
:1005310006F912029FE52175F007A4244AF816E591
:100541002175F007A42448F8E6FE08E64E7005AFD1
:10055100211205B00521E521C3940240B6120639E6
:030561001207344A
:010564002274
:0804B2008E218F228C238D2482
:1004BA00E4FEEE75F007A42444F8E6FC08E64C6076
:1004CA0009EEC3940250030E80E8BE02067552017B
:1004DA007F0222EE75F007A42444F8A62108A6227A
:1004EA00EE75F007A42446F8A62308A624EE75F0B4
:1004FA0007A42448F8A60208A603EE75F007A42468
:06050A004AF8E4F6AF061A
:0105100022C8
:1005B000EF75F007A42444F8E6FC08E64C700775D4
:1005C0005202D2008002C200EF75F007A42444F862
:1005D000E4F608F6EF75F007A42446F8E4F608F60A
:1005E000EF75F007A42448F8E4F608F6EF75F00775
:0805F000A4244AF8E4F6A2007D
:0105F80022E0
:10063900E5526553601BC374FF9552F5908552537B
:10064900E55260077554EA75556022E4F554F5558D
:1006590022E5554554600FE555155570021554149A
:0706690045547002F5522216
:0A0734004387014387014387202219
:1006A400456C61707365642074696D65000D456CFB
:1006B40061707365642074696D653A202020202080
:0B06C4002020202020202020202000EB
:09071E00015800015700015600CA
:1006CF0078217C007D007BFF7A0679A47E007F0D68
:0C06DF001200FE7B007A0079211200035B
:0106EB0022EC
:1002A50078227C007D007BFF7A0679B17E007F1E77
:1002B5001200FE0556E556B43C17E4F5560557E51C
:1002C50057B43C0DE4F5570558E558B41803E4F563
:1002D50058E55875F00A8490073E93F531E5587551
:1002E500F00A84E5F093F532E55775F00A8493F545
:1002F50034E55775F00A84E5F093F535E55675F064
:100305000A8493F537E55675F00A84E5F093F538D8
:10031500E55620E00875333A75363A800675332080
:0C0325007536207B007A0079221200035C
:0103310022A9
:100670001205F97F807E251205651206CF7E067F62
:10068000EC7B0A7A007D0A7C001204B27E027FA510
:100690007BE87A037DE87C031204B212002612057F
:0406A0001180FB22A8
:0A073E0030313233343536373839A4
:1005F900E4F521AF211205B00521E521C39402409C
:10060900F2E4F552C2CF75CDF975CC7D75CBF9758C
:10061900CA7D43C811D2ADC2BFC2BAF5C2F5C3F58E
:0F062900C4F5C5F5C6F5C7C2BBC2BCC2BDF5C19D
:01063800229F
:03002600D2AF2234
:03002B000203BE0F
:1003BE00C0E0C0F0C0D075D000C000C004C005C001
:0103CE000727
:1003CF00C2C6E4FFEF75F007A42444F8E6FC08E684
:1003DF004C6046EF75F007A42446F8E6FC08E64C9F
:1003EF007028EF75F007A4244AF806EF75F007A4FC
:1003FF002448F8E6FC08E6FD4C601EEF75F007A4F4
:10040F002446F8A60408A605800FEF75F007A4246C
:0D041F0046F808E616700218160FBF02A777
:0F042C00D007D005D004D000D0D0D0F0D0E0322F
:1006EC00E509C39508500D740A2509F8E6FF1204B4
:0A06FC003B050922E4F508F5092288
:060003008B408A41894296
:10000900E4F543AB40AA41A94285438275830012B6
:0C0019000124FF6007120706054380E782
:0100250022B8
:10070600E508C39414500A740A2508F8A6070508D4
:050716002275521622BD
:02043B008F220E
:10043D00E4F526F525F524F523E522640A7032F559
:10044D0026F525F524F523782312027FEC4D4E4F2A
:10045D0060033099F2E4FFFEFDFCAB26AA25A9242A
:10046D00A823C312026E700475521522C299759994
:10047D000DE4F526F525F524F523782312027FECFE
:10048D004D4E4F60033099F2E4FFFEFDFCAB26AA02
:10049D0025A924A823C312026E700475521522C219
:0404AD009985229972
:0104B1002228
:0C07280053657269616C204F4B2E0A0073
:1005650053877F75984243D880E4FCFD7BE87A0386
:10057500F9F8120151A804A905AA06AB077F207E48
:100585005F7DA07C121201DCC3E49FFF74049EFE14
:10059500EFF5AAEE5403F5BAD299E4F509F5087B0F
:0A05A500FF7A077928120003C2ACA8
:0105AF002229
:03000000020332C6
:0C033200787FE4F6D8FD7581580203794D
:10002E00E709F608DFFA8046E709F208DFFA803EB4
:10003E0088828C83E709F0A3DFFA8032E309F608A1
:10004E00DFFA8078E309F208DFFA807088828C8309
:10005E00E309F0A3DFFA806489828A83E0A3F608BD
:10006E00DFFA805889828A83E0A3F208DFFA804C97
:10007E0080D280FA80C680D4806980F2803380106E
:10008E0080A680EA809A80A880DA80E280CA8033D7
:10009E0089828A83ECFAE493A3C8C582C8CCC5834F
:1000AE00CCF0A3C8C582C8CCC583CCDFE9DEE7801F
:1000BE000D89828A83E493A3F608DFF9ECFAA9F09E
:1000CE00EDFB2289828A83ECFAE0A3C8C582C8CCF4
:1000DE00C583CCF0A3C8C582C8CCC583CCDFEADE0D
:1000EE00E880DB89828A83E493A3F208DFF980CC6F
:1000FE0088F0EF60010E4E60C388F0ED2402B40468
:10010E000050B9F582EB2402B4040050AF2323450E
:06011E00822390007E73B5
:10012400BB010CE58229F582E5833AF583E0225090
:1001340006E92582F8E622BBFE06E92582F8E222DA
:0D014400E58229F582E5833AF583E49322F4
:10015100E88FF0A4CC8BF0A42CFCE98EF0A42CFC4D
:100161008AF0EDA42CFCEA8EF0A4CDA8F08BF0A4CB
:100171002DCC3825F0FDE98FF0A42CCD35F0FCEB2A
:100181008EF0A4FEA9F0EB8FF0A4CFC5F02ECD39EF
:0F019100FEE43CFCEAA42DCE35F0FDE43CFC225C
:1001A00075F008758200EF2FFFEE33FECD33CDCC16
:1001B00033CCC58233C5829BED9AEC99E582984099
:1001C0000CF582EE9BFEED9AFDEC99FC0FD5F0D676
:1001D000E4CEFBE4CDFAE4CCF9A88222B800C1B9A0
:1001E0000059BA002DEC8BF084CFCECDFCE5F0CBDE
:1001F000F97818EF2FFFEE33FEED33FDEC33FCEB17
:1002000033FB10D703994004EB99FB0FD8E5E4F9D1
:10021000FA227818EF2FFFEE33FEED33FDEC33FCBE
:10022000C933C910D7059BE99A4007EC9BFCE99AB2
:10023000F90FD8E0E4C9FAE4CCFB2275F010EF2FF7
:10024000FFEE33FEED33FDCC33CCC833C810D707F7
:100250009BEC9AE899400AED9BFDEC9AFCE899F832
:0E0260000FD5F0DAE4CDFBE4CCFAE4C8F922C5
:10026E00EB9FF5F0EA9E42F0E99D42F0E89C45F0E6
:01027E00225D
:10027F007401FF3395E0FEFDFC080808E62FFFF63A
:10028F0018E63EFEF618E63DFDF618E63CFCF622B3
:06029F008A838982E473EA
:10033E00020670E493A3F8E493A34003F68001F25F
:10034E0008DFF48029E493A3F85407240CC8C333C0
:10035E00C4540F4420C8834004F456800146F6DF8F
:10036E00E4800B010204081020408090071BE47EFD
:10037E00019360BCA3FF543F30E509541FFEE49384
:10038E00A360010ECF54C025E060A840B8E493A34B
:10039E00FAE493A3F8E493A3C8C582C8CAC583CA76
:1003AE00F0A3C8C582C8CAC583CADFE9DEE780BE2E
:0107270000D1
:00000001FF
