:10016C005389F0438901C2A9E4FDFCC3ED9FEC9EC9
:10017C005016758CFC758A54C28DD28C308DFDC294
:08018C008C0DBD00010C80E3A5
:010194002248
:0301D000010F001C
:10008F00E4F508F509F50AF50B7F511201D4AD0817
:10009F000508AF0BAE0A120111AF0BAE0A12019594
:1000AF008F09C374FF9509F5A0C374FF950FF5B0C1
:1000BF00050BE50B7002050AFFAE0ABE0F08BFFF66
:0F00CF0005E4F50AF50B7FE87E0312016C80BF94
:0301D4008FD522A2
:100142008F865389F0438901C2A9758CEC758A7830
:10015200C28DD28CE5AA20E703308DF8C28C308D97
:0A01620003750F1F53AA3FAF86225A
:100111008E0C8F0D8D0E1200DEC2947F06120142ED
:10012100D2941201B8C2947F02120142E50CFF126F
:100131000142AF0DE50D120142AF0E120142D29400
:01014100229B
:040195008E0C8F0D30
:100199001200DEC2947F03120142E50CFF120142F4
:0E01A900AF0DE50D120142E4FF120142D294A7
:0101B7002225
:1000DE005389F0438901C2A9758CC5758AB3C28D47
:1000EE00D28CC2947F05120142E4FF120142D294D7
:1000FE00EF139200300003308DE8C28C308D037503
:02010E000F20C0
:0101100022CC
:1001B8005389F0438901C2A9758CFF758ADAC28D0B
:0801C800D28C308DFDC28C22A7
:03000000020003F8
:0C000300787FE4F6D8FD75812002004AE9
:10000F0002008FE493A3F8E493A34003F68001F278
:10001F0008DFF48029E493A3F85407240CC8C333F2
:10002F00C4540F4420C8834004F456800146F6DFC1
:10003F00E4800B01020408102040809001D0E47E80
:10004F00019360BCA3FF543F30E509541FFEE493B6
:10005F00A360010ECF54C025E060A840B8E493A37D
:10006F00FAE493A3F8E493A3C8C582C8CAC583CAA8
:10007F00F0A3C8C582C8CAC583CADFE9DEE780BE60
:0101D300002B
:00000001FF
