:03013500010D00B9
:10008F00E4F508F509F50AF50B7F52120139120153
:10009F000D8F09C374FF9509F5A0C374FF950DF576
:0A00AF00B07FE87E031200E480E455
:0100B9002224
:1000E4005389F0438901C2A9E4FDFCC3ED9FEC9E52
:1000F4005016758CFC758A54C28DD28C308DFDC21D
:080104008C0DBD00010C80E32D
:01010C0022D0
:030139008FD5223D
:1000BA008F865389F0438901C2A9758CEC758A78B9
:1000CA00C28DD28CE5AA20E703308DF8C28C308D20
:0A00DA0003750D1F53AA3FAF8622E5
:10010D00C2947F8F1200BAE4FF1200BA8F0CE4FF85
:10011D001200BAE50C25E025E0F50CEFC4131354DD
:07012D0003FF450CFFD29413
:0101340022A8
:03000000020003F8
:0C000300787FE4F6D8FD75810D02004AFC
:10000F0002008FE493A3F8E493A34003F68001F278
:10001F0008DFF48029E493A3F85407240CC8C333F2
:10002F00C4540F4420C8834004F456800146F6DFC1
:10003F00E4800B0102040810204080900135E47E1B
:10004F00019360BCA3FF543F30E509541FFEE493B6
:10005F00A360010ECF54C025E060A840B8E493A37D
:10006F00FAE493A3F8E493A3C8C582C8CAC583CAA8
:10007F00F0A3C8C582C8CAC583CADFE9DEE780BE60
:0101380000C6
:00000001FF
