:10040E0085131B85121A851119851018AF0FAE0EA4
:10041E00AD0DAC0C1202B88F0B8E0A8D098C0880B4
:01042E00DFEE
:0802B8008F178E168D158C14B2
:1002C0007FCD7ECC7D4C7C3EAB17AA16A915A81419
:1002D0001200FBAB1BAA1AA919A81812000A8F1F3B
:1002E0008E1E8D1D8C1CAF27AE26AD25AC24AB1702
:1002F000AA16A915A81412000A8F278E268D258C00
:1003000024AB1FAA1EA91DA81CC000C001C002C0AA
:10031000037FCD7ECC7DCC7C3DAB27AA26A925A82A
:10032000241200FBD003D002D001D00012000A8FAB
:100330001F8E1E8D1D8C1CAB1FAA1EA91DA81CC0C4
:1003400000C001C002C003AB23AA22A921A820AF8C
:1003500017AE16AD15AC141200067BCD7ACC79CC55
:10036000783D1200FBD003D002D001D00012000A69
:100370008F1F8E1E8D1D8C1CE4FFFE7D807C3FAB8D
:100380001FAA1EA91DA81C12020160025012E4FF40
:10039000FEFDFCAB1FAA1EA91DA81C120201501BCA
:1003A000AF27AE26AD25AC24AB17AA16A915A81405
:1003B0001200068F278E268D258C24E4FFFE7D807B
:1003C0007C3FAB1FAA1EA91DA81C120201600F4092
:1003D0000DE4F51FF51E751D80751C3F801BE4FFA5
:1003E000FEFDFCAB1FAA1EA91DA81C12020150098C
:1003F000E4F51FF51EF51DF51C85172385162285CE
:0D0400001521851420AF1FAE1EAD1DAC1CD4
:01040D0022CC
:100003000202A3E86480F8E933E83360110460F086
:10001300ED33EC337009E8FCE9FDEAFEEBFF220463
:1000230060DED3EB9FEA9EE99DE8C2E78CF0C2F75E
:1000330095F0400CE8CCF8E9CDF9EACEFAEBCFFB2A
:1000430012026E85D0F05804700320D5B3E8047013
:10005300075002B2D50202AD92D5EC0460F7E4CCAE
:10006300C0E0C398F8603B94186008400DD0E0FBF3
:10007300020285E4FBFAC9FC8028E830E406E4C9FF
:10008300FBE4CAFCE830E305E4C9CACBFCE8540747
:100093006010F8C3E913F9EA13FAEB13FBEC13FC52
:1000A300D8F130F52FC3E49CFCEF9BFFEE9AFEEDF5
:1000B30099FDD0E0FBEF4E4D4C701222DB030202A0
:1000C300AAEC2CFCEF33FFEE33FEED33FDED30E70E
:1000D300EB020285EF2BFFEE3AFEED39FDD0E0FB9C
:1000E30050130BBB00030202ADED13FDEE13FEEF45
:0800F30013FFEC13FC0202856F
:1000FB00EC4D6011E8497017ED33EC3304600DE4FF
:10010B00FCFFFEFD22E933E8330470F80202A31270
:10011B00026E58046009E4CC248150062850090271
:10012B0002AD2840030202AAC0E0EB4A7044B9803A
:10013B0006D0E0FB020299EF4E701CBD8008EBFF6E
:10014B00EAFEE9FD80EBE98DF0A4FEE5F00201E4A7
:10015B00E9CDF9EAFEEBFFEF89F0A4FCE5F0CE89DF
:10016B00F0A42EFFE435F0CD89F0A42DFEE435F09C
:10017B008067EF4E7005BD80D780C3EF8BF0A4ACCA
:10018B00F0EE8BF0A42CFCE435F0F8EF8AF0A42C05
:10019B00E5F038FCE433CB8DF0A42CFCE5F03BF818
:1001AB00EE8AF0A42CFCE5F038F8E433CF89F0A408
:1001BB002CFCE5F038CF3400CE89F0A42FFFE5F00E
:1001CB003EFEE433C98DF0A42EFEE5F039CD8AF066
:1001DB00A42FFFE5F03EFEE43DFD33D0E0FB5007DE
:1001EB000BBB000F0202ADEC2CFCEF33FFEE33FE2A
:0601FB00ED33FD02028558
:1002010074F8CC6480CCC86480C8F582046043C3B0
:10021100EB9FF5F0EA9E42F0E99D42F0E89C45F043
:1002210060305018E5825FFFE582F42B5582FB5068
:10023100210ABA001D09B90019088016E5825BFB85
:10024100E582F42F5582FF50090EBE00050DBD0059
:10025100010CC3EB9FF5F0EA9E42F0E99D42F0E804
:0D0261009C45F06007CC4820E701B3EC227B
:10026E00E9D2E7C933E833F892D5EDD2E7CD33ECD6
:07027E0033FC5002B2D5224F
:10028500EC30E7100FBF000C0EBE00080DBD0004DA
:100295000BEB6014A2D5EB13FCED92E7FD2274FF86
:1002A500FCFDFEFF22E480F8A2D574FF13FC7D80DF
:0302B500E480EFF3
:0300000002042FC8
:0C042F00787FE4F6D8FD75812702040EEA
:00000001FF
