:10034E00E4F513AF131202CE0513E513C394014067
:10035E00F2E4F50F75C804F5C975CDFC75CBFC75C7
:09036E00CC1875CA18D2ADD2CA30
:010377002263
:0303E400D2AF2273
:03002B0002019F30
:10019F00C0E0C0F0C0D075D000C000C004C005C022
:0101AF000748
:1001B000C2CFE4FFEF75F007A42408F8E6FC08E6D8
:1001C0004C6046EF75F007A4240AF8E6FC08E64CFC
:1001D0007028EF75F007A4240EF806EF75F007A459
:1001E000240CF8E6FC08E6FD4C601EEF75F007A451
:1001F000240AF8A60408A605800FEF75F007A424CA
:0D0200000AF808E616700218160FBF01A7D5
:0F020D00D007D005D004D000D0D0D0F0D0E03250
:1003780012034E1200037E007F2E7BE87A03E4FD11
:0C038800FC12021C1203E412027B80FB3A
:03039400010F0056
:10027B00E4F513E51375F007A4240EF8E6D3940008
:10028B004032E51375F007A42408F8E6FE08E6AA49
:10029B0006F91203C1E51375F007A4240EF816E551
:1002AB001375F007A4240CF8E6FE08E64E7005AFB4
:1002BB00131202CE0513E513C3940140B6120317B4
:0302CB000203E04B
:08021C008E138F148C158D1652
:10022400E4FEEE75F007A42408F8E6FC08E64C604A
:1002340009EEC3940150030E80E8BE0106750F0158
:100244007F0122EE75F007A42408F8A61308A6146B
:10025400EE75F007A4240AF8A61508A616EE75F0A4
:1002640007A4240CF8A60208A603EE75F007A4243C
:060274000EF8E4F6AF06EF
:01027A002261
:1002CE00EF75F007A42408F8E6FC08E64C700775F5
:1002DE000F02D2008002C200EF75F007A42408F8C6
:1002EE00E4F608F6EF75F007A4240AF8E4F608F62B
:1002FE00EF75F007A4240CF8E4F608F6EF75F00796
:08030E00A4240EF8E4F6A2009D
:0103160022C4
:10031700E50F6510601BC374FF950FF590850F10EF
:10032700E50F60077511EA75126022E4F511F51201
:1003370022E5124511600FE512151270021511140E
:0703470045117002F50F22C1
:0403E000438701222C
:100397000A2F010101000001000101000A250101E6
:0803A70001000001000101004A
:10000300C2001203CCC2001203D1C2001203D6C233
:10001300001203DB1203EA50FBE4F5241203E78F1B
:02002300232296
:10002E00E5241460431470030200BB147003020035
:10003E00E914700302010B14700302010F24056012
:10004E0003020112852490D2001203C7D2001203BC
:10005E00DB742F2523F8E6B40105D20012002575B6
:10006E002401E4F539F53A22852490053AE53A70F3
:10007E00020539FFAE39E4FCFD7BE87A03F9F8D3CB
:10008E001203B050037524051203EC507774252526
:10009E0023F8E6B4010ED2001203D6752402E4F55D
:1000AE0039F53A22752403E4F539F53A2285249080
:1000BE00053AE53A70020539FFAE39E4FCFD7BE8FE
:1000CE007A03F9F8D31203B050037524051203EE28
:1000DE005032752403E4F539F53A22852490D20086
:1000EE001203CC0522E52270020521C39430E521CE
:1000FE0094754010752404E4F521F5222285249090
:04010E002285249092
:0101120022CA
:0303E7007F002272
:0203EA00D3221C
:0203EC00D3221A
:0203EE00D32218
:04002500A2009201A2
:0100290022B4
:0403C700A2009201FD
:0103CB00220F
:0403CC00A2009201F8
:0103D000220A
:0403D100A2009201F3
:0103D5002205
:0403D600A2009201EE
:0103DA002200
:0403DB00A2009201E9
:0103DF0022FB
:03000000020113E7
:0C011300787FE4F6D8FD75813A02015AAD
:1003B000EB9FF5F0EA9E42F0E99D42F0E89C45F0A3
:0103C000221A
:0603C1008A838982E473C7
:10011F00020378E493A3F8E493A34003F68001F27B
:10012F0008DFF48029E493A3F85407240CC8C333E1
:10013F00C4540F4420C8834004F456800146F6DFB0
:10014F00E4800B0102040810204080900394E47EA9
:10015F00019360BCA3FF543F30E509541FFEE493A5
:10016F00A360010ECF54C025E060A840B8E493A36C
:10017F00FAE493A3F8E493A3C8C582C8CAC583CA97
:10018F00F0A3C8C582C8CAC583CADFE9DEE780BE4F
:0103AF00004D
:00000001FF
