:100441001201691205151205057E047FF07BA77A5A
:1004510000E4FDFC1200037E027FC27BA77A007DCF
:0F0461001E7C0012000312034D1203A480FB2225
:03007F0001160067
:1003A400E4F51AE51A75F007A4240EF8E6D39400D0
:1003B4004032E51A75F007A42408F8E6FE08E6AA18
:1003C40006F91204EAE51A75F007A4240EF816E5F6
:1003D4001A75F007A4240CF8E6FE08E64E7005AF83
:1003E4001A1203F8051AE51AC3940240B612051846
:0303F400120519D6
:0103F70022E3
:080003008E1A8F1B8C1C8D1D51
:10000B00E4FEEE75F007A42408F8E6FC08E64C6065
:10001B0009EEC3940250030E80E8BE02067516016A
:10002B007F0222EE75F007A42408F8A61A08A61B77
:10003B00EE75F007A4240AF8A61C08A61DEE75F0B1
:10004B0007A4240CF8A60208A603EE75F007A42457
:06005B000EF8E4F6AF060A
:01006100227C
:1003F800EF75F007A42408F8E6FC08E64C700775CA
:100408001602D2018002C201EF75F007A42408F891
:10041800E4F608F6EF75F007A4240AF8E4F608F6FF
:10042800EF75F007A4240CF8E4F608F6EF75F0076A
:08043800A4240EF8E4F6A20171
:010440002299
:0105180022C0
:0105190022BF
:07050500E4F52B1204CB22E8
:1002C20012049EE52B14602914604214605B1460D2
:1002D2007324047075C2E8D2E9D2EA052AE52A70CD
:1002E200020529640A45297061752B01F529F52A51
:1002F20022C2E8C2E9D2EA052AE52A700205296487
:100302000A45297045752B02F529F52A22D2E8D231
:10031200E9C2EA052AE52A70020529640A4529701C
:1003220029752B03F529F52A22D2E8C2E9D2EA057A
:100332002AE52A70020529640A4529700DF52BF574
:0A03420029F52A22D2E8D2E9D2EA16
:01034C00228E
:02049E00151E29
:1004A000A81EE4F6E521B40107752B04A81E760109
:1004B000120089500A752B04752501A81E7601A823
:0404C0001EE624FF11
:0704C400C0D0051ED0D022BC
:02008900C32290
:1004CB0012049E4007C2E8D2E9D2EA22D2E8D2E96E
:0304DB00D2EA2240
:060082000421323232328B
:10016900E4F51AAF1A1203F8051AE51AC394024006
:10017900F2E4F516C2EC75B12090F7007441F090E5
:10018900F7057434F090F7047442F090F70774FFA0
:10019900F090F706F090F709F090F708F090F70B58
:1001A90074F8F090F70A74FFF090F7117455F09015
:1001B900F7107499F090F7167404F090F713E4F0BF
:1001C90090F712F090F715F090F714F090F721746A
:1001D90055F090F7207495F090F726745CF090F73D
:1001E90023E4F090F722F090F72574F8F090F724C3
:1001F9007407F090F727E4F0A3F0A3F0A3F0A3F0BD
:100209007F0275F010EF90F7111204DE7455F07546
:10021900F010EF90F7101204DE7455F00FBF0FE2E3
:0C02290090F7007402F0439A021204FDEA
:0102350022A6
:10034D00C2AF120511C20175160312051812050C64
:10035D0090F711E05403FFBF02F3E0540CFFBF0808
:10036D000374F7F090F717E0FFA3E0FE90F7107419
:10037D00FDF0A3F0EF7015BE0212D20190F727F039
:10038D00A37402F090F72174E7F08002C2013001EE
:06039D00BCE4F5C0D2AF84
:0103A3002237
:03008B0002008EE2
:10008E00C0E0C0F0C083C082C0D075D000C000C038
:0D009E0001C002C003C004C005C006C007B9
:1000AB00D2EC120470BF020612006212050C90F71C
:1000BB0001E05407602B751606C2ECE020E003D379
:1000CB008001C392FB90F701E020E103D38001C3D1
:1000DB0092FC90F701E020E203D38001C392FD80F4
:1000EB0006D2FBD2FCD2FDE4FFEF75F007A4240887
:1000FB00F8E6FC08E64C6047EF75F007A4240AF815
:10010B00E6FC08E64C7029EF75F007A4240EF87690
:10011B0001EF75F007A4240CF8E6FC08E6FD4C6033
:10012B001EEF75F007A4240AF8A60408A605800F95
:10013B00EF75F007A4240AF808E616700218160FDC
:03014B00BF02A64A
:10014E00D007D006D005D004D003D002D001D00005
:0B015E00D0D0D082D083D0F0D0E032AF
:1004700090F711E0540CFFBF080374F7F090F717E2
:10048000E0FFBF0210A3E0F525A3E0F526A3E0F509
:0D04900027A3E0F52890F71074FDF0A3F00D
:01049D00223C
:1000620090F7277402F0A3E521F0A3E522F0A3E5BF
:0D00720023F0A3E524F090F72174E7F022BD
:0804FD007586EBD2AED2BE22DF
:05050C00D2AED2BE22B8
:040511001204CB22E3
:03051500C20022FF
:0D04F000300005C200C2EB22D200D2EB2288
:03000000020236C3
:0C023600787FE4F6D8FD75812B02027D74
:0C04DE00A42582F582E5F03583F5832229
:0604EA008A838982E4739D
:10024200020441E493A3F8E493A34003F68001F28D
:1002520008DFF48029E493A3F85407240CC8C333BD
:10026200C4540F4420C8834004F456800146F6DF8C
:10027200E4800B010204081020408090007FE47E9D
:10028200019360BCA3FF543F30E509541FFEE49381
:10029200A360010ECF54C025E060A840B8E493A348
:1002A200FAE493A3F8E493A3C8C582C8CAC583CA73
:1002B200F0A3C8C582C8CAC583CADFE9DEE780BE2B
:010088000077
:00000001FF
