:0304A8000116003A
:10040B00E4F56FE56F75F007A4240EF8E6D39400BE
:10041B004032E56F75F007A42408F8E6FE08E6AA5B
:10042B0006F912052FE56F75F007A4240EF816E5F3
:10043B006F75F007A4240CF8E6FE08E64E7005AFC6
:10044B006F12045F056FE56FC3940240B61205ECA3
:03045B0012074D38
:01045E00227B
:0803AC008E6F8F708C718D7251
:1003B400E4FEEE75F007A42408F8E6FC08E64C60B9
:1003C40009EEC3940250030E80E8BE0206751601BE
:1003D4007F0222EE75F007A42408F8A66F08A67021
:1003E400EE75F007A4240AF8A67108A672EE75F05B
:1003F40007A4240CF8A60208A603EE75F007A424AB
:060404000EF8E4F6AF065D
:01040A0022CF
:10045F00EF75F007A42408F8E6FC08E64C70077562
:10046F001602D2008002C200EF75F007A42408F82C
:10047F00E4F608F6EF75F007A4240AF8E4F608F698
:10048F00EF75F007A4240CF8E4F608F6EF75F00703
:08049F00A4240EF8E4F6A2000B
:0104A7002232
:1005EC00E5166517601BC374FF9516F590851617F5
:1005FC00E51660077518EA75196022E4F518F51907
:10060C0022E5194518600FE5191519700215181413
:07061C0045187002F51622DB
:04074D0043870122BB
:1004AB00202A3320504C4541534520574149542075
:1004BB002020202020202000202E2E2E2020202027
:1004CB0020202020202020202020202000082B036B
:1004DB00040E04041F000008230C120C0304040375
:0104EB000010
:10002E007F0A7E0012068BD2B2D2B3D2B4D2B5D230
:10003E00B6D2B77F0A7E0012068BC2B6C2B77F64F5
:10004E007E0012068BE4F56FC2037F2812011B7F20
:10005E00017E0012068B056FE56FC3940340E9C263
:10006E00037F0812011B7F017E0012068BC2037FE5
:10007E000112011B7F017E0012068BC201C202E437
:10008E00F5721206F77F017E0012068BC2037F0106
:10009E0012011B7F017E0012068B30006FC2037FA0
:1000AE000612011B7F017E0012068BE4F570E4F54B
:1000BE0071E57075F015A424332571F876201203BE
:1000CE00407F017E0012068B0571E571C3941440CA
:1000DE00E00570E570C3940240D47B007A0079236A
:1000EE007F021206237F017E0012068B7B007A00B0
:1000FE00792B7F011206237F017E0012068BC2032D
:0C010E007F0C12011B7F017E0012068B8B
:01011A0022C2
:100340007F280522E522B4140DE4F5220521E521DC
:10035000B40203E4F521E52175F015A42433252228
:10036000F8E66003D38001C39201AE071FEED39479
:100370000040033001CC300132E5217007AF22127A
:1003800007298008E5222440FF120729E52175F09E
:1003900015A424332522F8E6FFD20312011BE52120
:0B03A00075F015A424332522F8E4F6C4
:0103AB00222F
:10011B008F76C2B2C2B3C2B4C2B5A20392B6C2B793
:10012B00120710E57630E403D38001C392B2E57673
:10013B0030E503D38001C392B3E57630E603D38079
:10014B0001C392B4E57630E703D38001C392B512B5
:10015B000710D2B7120710C2B7120710C2B2C2B340
:10016B00C2B4C2B5A20392B6C2B7120710E576307D
:10017B00E003D38001C392B2E57630E103D3800173
:10018B00C392B3E57630E203D38001C392B4E57634
:10019B0030E303D38001C392B5120710D2B7120715
:0701AB0010C2B71207102279
:1006F7007F0C300103430702300203430701C203A3
:0807070012011BAF7212072959
:01070F0022C7
:0C07290053077F430780C20312011B220C
:0C07350053073F430740C20312011B2280
:060623008B728A738974DA
:10062900EF33333354F8FF120735E4F575AB72AA8B
:1006390073A9748575827583001204F0FFD20312C1
:10064900011B0575E575C3940840E2E4FF1207290B
:01065900227E
:100710000578E578700205770578E5787002057749
:080720000578E5787002057709
:0107280022AE
:10068B005389F0438901C2A9E4FDFCC3ED9FEC9EA5
:10069B005016758CFC758A9EC28DD28C308DFDC226
:0806AB008C0DBD00010C80E381
:0106B3002224
:10053500C20012002EC20012002ED20012002E128E
:10054500074112065A1200037E037F407B187A008A
:100555007DE87C031203AC7E057F747B327A007DD7
:0F056500D07C071203AC12075112040B80FB224B
:0304EC00016D2D72
:06074100E4F56EF56C22E8
:1005B2007577007578007579737B007A007972120D
:1005C200023E5025E56CB56E05E4F56CF56EE56C02
:1005D20025E0245EF8A672E56C25E0245FF8A67398
:0905E200E56CC394065002056C9F
:0105EB0022ED
:1006B400E56EC3956C5020E56E25E0245EF8E612E5
:1006C400051DE56E25E0245FF8E6AB75AA76A977EB
:0906D40012051D056ED322C3229C
:06074700E4F56CF56E22E2
:10023E007F2DE4FEC2A020A6027F3120A5027F34CE
:10024E0020A4027F3720A3027E2AD2A0C2A120A61C
:10025E00027F3220A5027F3520A4027F3820A30220
:10026E007F30D2A1C2A220A6027F3320A5027F3604
:10027E0020A4027F3920A3027E23D2A2BF2D0875AF
:10028E005D2D756D2DC322EF655D7025EF656D607B
:10029E0020EF12051DF56DEE600BAB77AA78A979EC
:1002AE0012051D800AAB77AA78A979E412051DD331
:0402BE00228F5DC36B
:0102C2002219
:1006DD0054797065206F6E20746865206B65797034
:0A06ED0061643A2020202020200044
:10065A00756FFF7570067571DD120747E4FFAB6FA2
:10066A00AA70A9718F827583001204F0FE74332F69
:10067A00F8A60674482FF8762A0FBF14E1E4F51A93
:01068A00224D
:100574001205B27575007576007577717B007A0087
:1005840079701206B45026E57160117448251AF882
:10059400A671051AE51AB41403E4F51A7448251A69
:0D05A400F8A670051AE51AB41403E4F51A60
:0105B1002227
:10000300E4F56FAF6F12045F056FE56FC3940240B1
:10001300F2E4F51675C804F5C975CDEE75CBEEF5AA
:07002300CCF5CAD2ADD2CA30
:01002A0022B3
:03075100D2AF2202
:03002B000202C30B
:1002C300C0E0C0F0C0D075D000C000C004C005C0FD
:0102D3000723
:1002D400C2CFE4FFEF75F007A42408F8E6FC08E6B3
:1002E4004C6046EF75F007A4240AF8E6FC08E64CD7
:1002F4007028EF75F007A4240EF806EF75F007A434
:10030400240CF8E6FC08E6FD4C601EEF75F007A42B
:10031400240AF8A60408A605800FEF75F007A424A4
:0D0324000AF808E616700218160FBF02A7AF
:0F033100D007D005D004D000D0D0D0F0D0E0322B
:030000000201B248
:0C01B200787FE4F6D8FD7581790201F930
:1004F000BB010CE58229F582E5833AF583E02250C1
:1005000006E92582F8E622BBFE06E92582F8E2220A
:0D051000E58229F582E5833AF583E4932224
:10051D00BB010689828A83F0225002F722BBFE01BD
:02052D00F322B7
:06052F008A838982E47357
:1001BE00020535E493A3F8E493A34003F68001F21D
:1001CE0008DFF48029E493A3F85407240CC8C33342
:1001DE00C4540F4420C8834004F456800146F6DF11
:1001EE00E4800B01020408102040809004A8E47EF5
:1001FE00019360BCA3FF543F30E509541FFEE49306
:10020E00A360010ECF54C025E060A840B8E493A3CC
:10021E00FAE493A3F8E493A3C8C582C8CAC583CAF7
:10022E00F0A3C8C582C8CAC583CADFE9DEE780BEAF
:0104EF00000C
:00000001FF
