:10029500C2E8C2E9C2EAC2EBC2ECC2EDC2EEC2EFED
:1002A50075211CE52125E0F522E52175F003A4F56E
:1002B50023E52125E025E0F524E52175F005A4F5E4
:1002C50025E52175F006A4F526E52175F007A4F5C9
:0A02D50027E52175F008A4F52822A2
:10002E00AF1EEFC3952140047E0180027E00BE010B
:10003E0003D38001C392E8EFC3952240047E018072
:10004E00027E00BE0103D38001C392E9EFC3952364
:10005E0040047E0180027E00BE0103D38001C39264
:10006E00EAEFC3952440047E0180027E00BE0103A8
:10007E00D38001C392EBEFC3952540047E0180022D
:10008E007E00BE0103D38001C392ECEFC3952640E0
:10009E00047E0180027E00BE0103D38001C392ED77
:1000AE00EFC3952740047E0180027E00BE0103D37C
:1000BE008001C392EEEFC3952840047F0180027F3A
:0A00CE0000BF0103D38001C392EFCD
:0100D8002205
:1003680012032812001C1202957E007F037BE87A94
:10037800037D0A7C001201E27E007F2E7BE87A036F
:100388007D0C7C001201E21203A212024180FB22C2
:03039E0001160045
:10024100E4F51AE51A75F007A4240EF8E6D3940034
:100251004032E51A75F007A42408F8E6FE08E6AA7C
:1002610006F9120398E51A75F007A4240EF816E5AD
:100271001A75F007A4240CF8E6FE08E64E7005AFE7
:100281001A1202DF051AE51AC3940240B61203A539
:0302910012002731
:010294002247
:0801E2008E1A8F1B8C1C8D1D71
:1001EA00E4FEEE75F007A42408F8E6FC08E64C6085
:1001FA0009EEC3940250030E80E8BE02067516018A
:10020A007F0222EE75F007A42408F8A61A08A61B96
:10021A00EE75F007A4240AF8A61C08A61DEE75F0D0
:10022A0007A4240CF8A60208A603EE75F007A42476
:06023A000EF8E4F6AF0629
:01024000229B
:1002DF00EF75F007A42408F8E6FC08E64C700775E4
:1002EF001602D2008002C200EF75F007A42408F8AE
:1002FF00E4F608F6EF75F007A4240AF8E4F608F61A
:10030F00EF75F007A4240CF8E4F608F6EF75F00784
:08031F00A4240EF8E4F6A2008C
:0103270022B3
:0103A5002235
:0400270043870122E8
:10032800E4F51AAF1A1202DF051AE51AC39402405F
:10033800F2E4F516C2CF75CDF975CC7D75CBF9759C
:10034800CA7D43C811D2ADC2BFC2BAF5C2F5C3F562
:0F035800C4F5C5F5C6F5C7C2BBC2BCC2BDF5C171
:010367002273
:0303A200D2AF22B5
:03002B000201656A
:10016500C0E0C0F0C0D075D000C000C004C005C05C
:010175000782
:10017600C2C6E4FFEF75F007A42408F8E6FC08E61B
:100186004C6046EF75F007A4240AF8E6FC08E64C36
:100196007028EF75F007A4240EF806EF75F007A493
:1001A600240CF8E6FC08E6FD4C601EEF75F007A48B
:1001B600240AF8A60408A605800FEF75F007A42404
:0D01C6000AF808E616700218160FBF02A70F
:0F01D300D007D005D004D000D0D0D0F0D0E0328B
:0B001C00C2DDC2DBC2D8C2D9C2DA22AA
:100003007F017E0075DA0130DC04EF4E70F9EF4EAC
:080013007003F51E2285D91EC1
:01001B0022C2
:030000000200D922
:0C00D900787FE4F6D8FD75812802012034
:060398008A838982E473F0
:1000E500020368E493A3F8E493A34003F68001F2C6
:1000F50008DFF48029E493A3F85407240CC8C3331C
:10010500C4540F4420C8834004F456800146F6DFEA
:10011500E4800B010204081020408090039EE47ED9
:10012500019360BCA3FF543F30E509541FFEE493DF
:10013500A360010ECF54C025E060A840B8E493A3A6
:10014500FAE493A3F8E493A3C8C582C8CAC583CAD1
:10015500F0A3C8C582C8CAC583CADFE9DEE780BE89
:0103A100005B
:00000001FF
